{
    "paygas_Istanbul" : {
        "_info" : {
            "comment" : "Verifies that a block with an AA transaction is valid.",
            "filling-rpc-server" : "Geth-1.9.14-unstable",
            "filling-tool-version" : "retesteth-0.0.3+commit.af99695f.Linux.g++",
            "lllcversion" : "Error getting LLLC Version",
            "source" : "src/BlockchainTestsFiller/ValidBlocks/bcStateTests/paygasFiller.json",
            "sourceHash" : "ab24b07d499ccd5de3769c2f11e374ba59a1dd48297841cc3fa20636c4fb179e"
        },
        "sealEngine" : "NoProof",
        "network" : "Istanbul",
        "pre" : {
            "0x095e7baea6a6c7c4c2dfeb977efac326af552d87" : {
                "balance" : "0x0de0b6b3a7640000",
                "code" : "0x3373ffffffffffffffffffffffffffffffffffffffff1460245736601f57005b600080fd5b60ff60ff556004aa",
                "nonce" : "0x00",
                "storage" : {
                }
            }
        },
        "genesisBlockHeader" : {
            "bloom" : "0x00000000000000000000000000000000000000000000000000000000000000000000000000000000000000000000000000000000000000000000000000000000000000000000000000000000000000000000000000000000000000000000000000000000000000000000000000000000000000000000000000000000000000000000000000000000000000000000000000000000000000000000000000000000000000000000000000000000000000000000000000000000000000000000000000000000000000000000000000000000000000000000000000000000000000000000000000000000000000000000000000000000000000000000000000000000",
            "coinbase" : "0x8888f1f195afa192cfee860698584c030f4c9db1",
            "difficulty" : "0x020000",
            "extraData" : "0x42",
            "gasLimit" : "0x2fefd8",
            "gasUsed" : "0x00",
            "hash" : "0x2cb453cc47a4e955949bec73efcb9230d5a2125dd15e487cecbd6c6fb3bf38c8",
            "mixHash" : "0x0000000000000000000000000000000000000000000000000000000000000000",
            "nonce" : "0x0000000000000000",
            "number" : "0x00",
            "parentHash" : "0x0000000000000000000000000000000000000000000000000000000000000000",
            "receiptTrie" : "0x56e81f171bcc55a6ff8345e692c0f86e5b48e01b996cadc001622fb5e363b421",
            "stateRoot" : "0xf795a87bfab751b83b095e8ab9e941d979e7597d160438f19d5208960392c951",
            "timestamp" : "0x54c98c81",
            "transactionsTrie" : "0x56e81f171bcc55a6ff8345e692c0f86e5b48e01b996cadc001622fb5e363b421",
            "uncleHash" : "0x1dcc4de8dec75d7aab85b567b6ccd41ad312451b948a7413f0a142fd40d49347"
        },
        "genesisRLP" : "0xf901fcf901f7a00000000000000000000000000000000000000000000000000000000000000000a01dcc4de8dec75d7aab85b567b6ccd41ad312451b948a7413f0a142fd40d49347948888f1f195afa192cfee860698584c030f4c9db1a0f795a87bfab751b83b095e8ab9e941d979e7597d160438f19d5208960392c951a056e81f171bcc55a6ff8345e692c0f86e5b48e01b996cadc001622fb5e363b421a056e81f171bcc55a6ff8345e692c0f86e5b48e01b996cadc001622fb5e363b421b90100000000000000000000000000000000000000000000000000000000000000000000000000000000000000000000000000000000000000000000000000000000000000000000000000000000000000000000000000000000000000000000000000000000000000000000000000000000000000000000000000000000000000000000000000000000000000000000000000000000000000000000000000000000000000000000000000000000000000000000000000000000000000000000000000000000000000000000000000000000000000000000000000000000000000000000000000000000000000000000000000000000000000000000000000000000008302000080832fefd8808454c98c8142a00000000000000000000000000000000000000000000000000000000000000000880000000000000000c0c0",
        "blocks" : [
            {
                "chainname" : "default",
                "blocknumber" : "1",
                "uncleHeaders" : [
                ],
                "blockHeader" : {
                    "bloom" : "0x00000000000000000000000000000000000000000000000000000000000000000000000000000000000000000000000000000000000000000000000000000000000000000000000000000000000000000000000000000000000000000000000000000000000000000000000000000000000000000000000000000000000000000000000000000000000000000000000000000000000000000000000000000000000000000000000000000000000000000000000000000000000000000000000000000000000000000000000000000000000000000000000000000000000000000000000000000000000000000000000000000000000000000000000000000000",
                    "coinbase" : "0x8888f1f195afa192cfee860698584c030f4c9db1",
                    "difficulty" : "0x020000",
                    "extraData" : "0x42",
                    "gasLimit" : "0x2ffbd2",
                    "gasUsed" : "0xa049",
                    "hash" : "0x28c7360881c8c0bd32234f86034b7832ca9370d83eed850705d8c9faf13675bd",
                    "mixHash" : "0x0000000000000000000000000000000000000000000000000000000000000000",
                    "nonce" : "0x0000000000000000",
                    "number" : "0x01",
                    "parentHash" : "0x2cb453cc47a4e955949bec73efcb9230d5a2125dd15e487cecbd6c6fb3bf38c8",
                    "receiptTrie" : "0x16a3babbcf6edcd84cc42339ff7ac4bd8957a83d7f8ecf16d61931f05d31a7be",
                    "stateRoot" : "0x6fc69b4b4cca73302b75d4651d9677c6ffe8bff05b337f488b55cc5ef0116ebb",
                    "timestamp" : "0x54c99069",
                    "transactionsTrie" : "0x357627c998821ae2d426d193f0bf73d005e64aed126d10523512d489e040addb",
                    "uncleHash" : "0x1dcc4de8dec75d7aab85b567b6ccd41ad312451b948a7413f0a142fd40d49347"
                },
                "transactions" : [
                    {
                        "data" : "0x",
                        "gasLimit" : "0x061a80",
                        "gasPrice" : "0x00",
                        "nonce" : "0x00",
                        "r" : "0x00",
                        "s" : "0x00",
                        "to" : "0x095e7baea6a6c7c4c2dfeb977efac326af552d87",
                        "v" : "0x1b",
                        "value" : "0x00"
                    }
                ],
                "rlp" : "0xf9021ff901f9a02cb453cc47a4e955949bec73efcb9230d5a2125dd15e487cecbd6c6fb3bf38c8a01dcc4de8dec75d7aab85b567b6ccd41ad312451b948a7413f0a142fd40d49347948888f1f195afa192cfee860698584c030f4c9db1a06fc69b4b4cca73302b75d4651d9677c6ffe8bff05b337f488b55cc5ef0116ebba0357627c998821ae2d426d193f0bf73d005e64aed126d10523512d489e040addba016a3babbcf6edcd84cc42339ff7ac4bd8957a83d7f8ecf16d61931f05d31a7beb90100000000000000000000000000000000000000000000000000000000000000000000000000000000000000000000000000000000000000000000000000000000000000000000000000000000000000000000000000000000000000000000000000000000000000000000000000000000000000000000000000000000000000000000000000000000000000000000000000000000000000000000000000000000000000000000000000000000000000000000000000000000000000000000000000000000000000000000000000000000000000000000000000000000000000000000000000000000000000000000000000000000000000000000000000000000008302000001832ffbd282a0498454c9906942a00000000000000000000000000000000000000000000000000000000000000000880000000000000000e1e0808083061a8094095e7baea6a6c7c4c2dfeb977efac326af552d8780801b8080c0"
            }
        ],
        "postState" : {
            "0x095e7baea6a6c7c4c2dfeb977efac326af552d87" : {
                "code" : "0x3373ffffffffffffffffffffffffffffffffffffffff1460245736601f57005b600080fd5b60ff60ff556004aa",
                "nonce" : "0x00",
                "balance" : "0x0de0b6b3a7617edc",
                "storage" : {
                    "0xff" : "0xff"
                }
            },
            "0x8888f1f195afa192cfee860698584c030f4c9db1" : {
                "code" : "0x",
                "nonce" : "0x00",
                "balance" : "0x1bc16d674eca8124",
                "storage" : {
                }
            }
        },
        "lastblockhash" : "0x28c7360881c8c0bd32234f86034b7832ca9370d83eed850705d8c9faf13675bd"
    }
}